:100000000C9434000C9451000C9451000C94510049
:100010000C9451000C9451000C9451000C94670006
:100020000C9451000C9451000C9451000C9451000C
:100030000C9451000C9451000C9451000C945100FC
:100040000C9451000C9451000C9451000C945100EC
:100050000C9451000C9451000C9451000C945100DC
:100060000C9451000C94510011241FBECFEFD8E026
:10007000DEBFCDBF11E0A0E0B1E0E6E7F7E102C0EE
:1000800005900D92AE33B107D9F725E0AEE3B1E0AC
:1000900001C01D92A637B207E1F70E94FA090C943D
:1000A000B90B0C9400008AB18F798AB915BC1092F3
:1000B000B10094E08BB189278BB92FEF39E688E145
:1000C000215030408040E1F700C00000F3CF1F9284
:1000D0001FB61F9211242F933F938F939F93EF93FB
:1000E000FF932091460580913E0190913F01213080
:1000F000D1F520914001222399F18A5B9E4FFC01AA
:10010000808187BD88BD80913E0190913F0101961D
:1001100090933F0180933E01E0914001F0E0EE0FAB
:10012000FF1FEE5BFE4F208131818217930771F430
:1001300010923F0110923E019091400181E0911197
:1001400080E08093400181E080934101FF91EF9135
:100150009F918F913F912F911F901FBE1F901895D7
:100160008A5B9C4FCCCF209140012223C1F08A5B57
:100170009E4FFC01808187BD2091400180913E010E
:1001800090913F01222371F08A5B9E4FFC01818197
:1001900088BD80913E0190913F010296B9CF8A5B64
:1001A0009C4FE7CF8A5B9C4FF1CF8EBD0DB407FE0D
:1001B000FDCF8DB58F778DBD8EB50895FF920F93CE
:1001C0001F93CF93DF93C82FD42F152F062FF72E11
:1001D0008FEF0E94D5008C2F80640E94D5008F2D58
:1001E0000E94D500802F0E94D500812F0E94D5004B
:1001F0008D2F0E94D50085E9CC2321F087E8C830F7
:1002000009F08FEF0E94D500CAE08FEF0E94D50061
:100210008F3F11F4C150C9F7DF91CF911F910F911A
:10022000FF900895CF92DF92EF92FF920F931F936A
:10023000CF93DF9384B18C6284B924982A9A83E5A2
:100240008CBD8DB58E7F8DBD10924E05CAE0D0E07D
:100250008FEF0E94D5002197D9F72A9800E012E08D
:1002600040E050E0BA0180E00E94DE00C82F8130FB
:1002700079F001501109A1F72A9AC1E08C2FDF9182
:10028000CF911F910F91FF90EF90DF90CF90089545
:100290004AEA51E060E070E088E00E94DE0082FD02
:1002A0003BC08FEF0E94D5008FEF0E94D5008FEFEB
:1002B0000E94D50080FFE2CF8FEF0E94D5008A3ADE
:1002C000E9F680914E05826080934E0500E010E8CB
:1002D00080914E05982F937089F1C12CD12C760115
:1002E00081FF05C0C12CD12CE12C80E4F82E40E028
:1002F00050E0BA0187E30E94DE00B701A60189E25F
:100300000E94DE00982F917080FF1DC001501109DE
:10031000F9F62A9AC92FB2CF40E050E0BA0187E33C
:100320000E94DE0040E050E0BA0189E20E94DE0057
:1003300082FDCCCF80914E058160C6CF40E050E079
:10034000BA0181E0DDCFD0914E05D1FF1BC040E066
:1003500050E0BA018AE30E94DE00882311F02A9A55
:100360008DCF8FEF0E94D50086FF03C0D460D0935D
:100370004E058FEF0E94D5008FEF0E94D5008FEFC2
:100380000E94D50040E052E060E070E080E10E9411
:10039000DE002A9A811172CF8CB58C7F8CBD8DB511
:1003A00081608DBD2FEF89EF90E02150804090401B
:1003B000E1F700C00000C0E061CF7F928F929F9272
:1003C000AF92BF92CF92DF92EF92FF920F931F9363
:1003D000CF93DF93D82EC92E7901E8012A98809116
:1003E0004E0582FD07C089E076956795579547953C
:1003F0008A95D1F781E10E94DE00782E10E000E0BE
:10040000882391F02A9A77247394872DDF91CF91D6
:100410001F910F91FF90EF90DF90CF90BF90AF9022
:100420009F908F907F9008958FEF0E94D5008E3F10
:1004300059F10F3F100731F30F5F1F4FF5CF8FEFCB
:100440000E94D5000F5F1F4F0E151F05C1F7570102
:1004500047018C0E9D1EA814B904C8F08E149F0489
:1004600010F4D0E0C0E0CE0DDF1DC11582E0D8074A
:10047000E0F08FEF0E94D5008FEF0E94D5002A9AFE
:100480008FEF0E94D500C1CF10E000E0DDCF0D2D31
:100490001C2D8FEF0E94D500F80181938F01FFEF93
:1004A000AF1ABF0AD02EC12ED6CF8FEF0E94D50033
:1004B0002196DBCFCF93DF9300D000D0CDB7DEB74E
:1004C0009B01AC012250310941095109809152052B
:1004D00090915305A0915405B09155050297A1093B
:1004E000B109281739074A075B0740F5A0914F0566
:1004F000B0E00E949F0B69837A838B839C838091F9
:100500005E0590915F05A0916005B091610529811C
:100510003A814B815C81280F391F4A1F5B1F298359
:100520003A834B835C8369817A818B819C810F90B4
:100530000F900F900F90DF91CF91089519821A823A
:100540001B821C82F0CF0F931F93CF93DF93EC019C
:10055000198218826C817D818E819F816130710545
:100560008105910551F1009152051091530520919B
:100570005405309155056017710782079307E8F419
:10058000611571058105910541F460915A057091DD
:100590005B0580915C0590915D05688779878A8706
:1005A0009B870E945A026C877D878E879F8780E099
:1005B000DF91CF911F910F91089581E0F9CFCF92F4
:1005C000DF92EF92FF92CF93DF9300D000D0CDB7B0
:1005D000DEB789839A8389819A8144960E949B0918
:1005E000B0E0A0E07C01DD24CC2489819A814A9688
:1005F0000E949B09B0E0A0E09C01AD012C293D299F
:100600004E295F29CA01B9010F900F900F900F90EA
:10061000DF91CF91FF90EF90DF90CF9008950F93EF
:100620001F93CF93DF93CDB7DEB728970FB6F8941B
:10063000DEBF0FBECDBF462F572FBC014230510544
:100640006105710508F449C08091520590915305E8
:10065000A0915405B0915505481759076A077B07C3
:10066000E0F59A012F773327220F331F220F331F14
:1006700097E076956795579547959A95D1F780912C
:10068000560590915705A0915805B0915905480F0E
:10069000591F6A1F7B1F04E010E0CE0101960E94E3
:1006A000DD0181111AC0CE0101960E948709DC018B
:1006B000CB01BF708D839E83AF83B8876D817E81B0
:1006C0008F81988528960FB6F894DEBF0FBECDBFF8
:1006D000DF91CF911F910F91089581E090E0A0E00C
:1006E000B0E0E8CFCF92DF92EF92FF920F931F938B
:1006F000CF93DF93CDB7DEB72A970FB6F894DEBF5E
:100700000FBECDBF8D839E83AD81BE810D911C91A7
:100710000F5F1F4F81F481E02A960FB6F894DEBF79
:100720000FBECDBFDF91CF911F910F91FF90EF9042
:10073000DF90CF900895ED81FE8184859585A68513
:10074000B7850097A105B10531F398012F703327C4
:10075000232BD1F40196A11DB11D84879587A6870F
:10076000B78780859185A285B38589839A83AB837A
:10077000BC83892B8A2B8B2B69F480915005909137
:1007800051050817190738F6ED81FE8111830083A2
:1007900080E0C2CF80914F058150990B980144E0D1
:1007A000369527954A95E1F782239323892B61F7A4
:1007B00069817A818B819C810E940F03623071056F
:1007C0008105910508F4A7CFC0905205D09053053C
:1007D000E0905405F09055056C157D058E059F053C
:1007E00008F099CFED81FE816087718782879387BA
:1007F0000E945A02AD81BE811C966D937D938D93AC
:100800009C931F97C1CFCF92DF92EF92FF920F93ED
:100810001F93CF93DF93D82FC92F6A017B0102E08A
:1008200010E02EEF31E00E94DD01811124C08D2FF8
:100830009C2F0E949B0985359A4AF9F422E530E005
:10084000A601B7018D2F9C2F0E94DD01811117C0D9
:100850008D2F9C2F0E949B099C0181E026343144FE
:1008600009F480E0DF91CF911F910F91FF90EF90FD
:10087000DF90CF90089583E0F5CF82E0F3CF81E061
:10088000F1CFAF92BF92CF92DF92EF92FF920F9390
:100890001F93CF93DF937C016B01CA015C01DC01E4
:1008A0002C9101962032D1F32F3209F45C01F7012B
:1008B0001482158216821782D5018C91803208F03D
:1008C00065C0C7010E94A302C82FF60110828C2FB9
:1008D000DF91CF911F910F91FF90EF90DF90CF901C
:1008E000BF90AF900895A30EB11C91E0813208F043
:1008F00090E09B87C7010E94A302C82F8111E7CF18
:10090000F701208131812F70332785E0220F331FBB
:100910008A95E1F7448555856685778500E210E084
:10092000C6010E94DD01C82F8111D1CFD6018C9163
:10093000811102C0C1E0CBCFF6018385C82FC870FA
:1009400083FF04C0C7010E947203D7CFD70112965C
:100950006D917C914BE050E0C6010E94AA0988236A
:1009600089F3D7011296ED91FC9183858111AFCF68
:10097000F601838584FFDECFC6010E94DF02D70126
:1009800014966D937D938D939C931797D701129630
:10099000CD91DC914BE050E060E2CE010E949F09D6
:1009A00020E0E0E098E031E03E0FEA0DFB2DF11D84
:1009B0008081813208F497CF8F3209F494CF8E3240
:1009C00099F0291708F08FCF4FE9480F4A3108F402
:1009D0008052FE01E20FF11D8083892F91E0920F7A
:1009E000292FE32F982FDFCF983009F07CCF8BE0B1
:1009F000F7CFCF92DF92EF92FF920F931F93CF9397
:100A0000DF93CDB7DEB7AC970FB6F894DEBF0FBE5D
:100A1000CDBF40E050E0BA01CE0101960E94030430
:100A2000C12CD12C7601882379F100E110E02EEB66
:100A300031E040E050E0BA01CE0101960E94DD01B4
:100A4000882389F011E0812FAC960FB6F894DEBFB1
:100A50000FBECDBFDF91CF911F910F91FF90EF900F
:100A6000DF90CF9008958D81882361F3CE010996A0
:100A70000E9487096B017C01BC01A601CE01019691
:100A80000E9403048111DECF04E210E02DE030E08B
:100A9000B701A601CE0101960E94DD01182F811138
:100AA000D1CFCE010A960E949B099C0150E040E004
:100AB000892B31F4CE0148960E9487099B01AC0135
:100AC000AC81B0E00E949F0B69A77AA78BA79CA777
:100AD000CE0102960E949B09C80ED91EE11CF11C92
:100AE000C0925605D0925705E0925805F0925905EC
:100AF000898180934F05CE0105960E949B099093B2
:100B0000510580935005CE0107960E949B096C0108
:100B1000F12CE12C892B31F4CE0144960E948709F7
:100B20006B017C01CE0102960E949B092091500529
:100B30003091510544E0369527954A95E1F749A54E
:100B40005AA56BA57CA5420F531F611D711DC41AC8
:100B5000D50AE60AF70AA7019601281B390B4109B5
:100B600051092DA33EA34FA358A720914F0530E074
:100B700050E040E06DA17EA18FA198A50E947D0B61
:100B8000DA01C9010296A11DB11D8093520590930F
:100B90005305A0935405B0935505873F9F4FA1057A
:100BA000B10508F44FCFCE0180960E94870960936B
:100BB0005A0570935B0580935C0590935D052091C9
:100BC00050053091510584E0369527958A95E1F7D7
:100BD0008091560590915705A0915805B0915905FF
:100BE000820F931FA11DB11D29A53AA54BA55CA598
:100BF000820F931FA41FB51F80935E0590935F051E
:100C0000A0936005B09361051ECF1F93CF93DF9330
:100C1000CDB7DEB7EC970FB6F894DEBF0FBECDBFF1
:100C2000AC01CE01C1969CA38BA3BE016F5F7F4F29
:100C300040970E9441049981992379F11C85107194
:100C4000182B59F5CE0101960E94DF0260936205D0
:100C5000709363058093640590936505CE014D966E
:100C60000E948709609372057093730580937405E1
:100C70009093750510926E0510926F051092700595
:100C800010927105812FEC960FB6F894DEBF0FBE5F
:100C9000CDBFDF91CF911F91089511E0F3CF8F92D7
:100CA0009F92AF92BF92CF92DF92EF92FF920F93FB
:100CB0001F93CF93DF9300D000D000D0CDB7DEB725
:100CC0007C016D837E836A01DA011D921C92809102
:100CD000720590917305A0917405B09175054091CE
:100CE0006E0550916F056091700570917105841BC0
:100CF000950BA60BB70BED81FE81AF0170E060E0B4
:100D000084179507A607B70710F49E838D83A12C3F
:100D100032E0B32E2D813E81232B11F480E039C0C7
:100D200080916E0590916F05A0917005B09171054D
:100D3000AC01BD01517066277727452B462B472B09
:100D400009F06FC090904F059A94AC01BD0129E065
:100D500076956795579547952A95D1F79422E9F5A9
:100D6000892B8A2B8B2B41F12091660530916705E9
:100D70004091680550916905CA01B9010E940F03AD
:100D8000462F572FBC014230510561057105E8F42B
:100D900081E026960FB6F894DEBF0FBECDBFDF917F
:100DA000CF911F910F91FF90EF90DF90CF90BF9068
:100DB000AF909F908F900895409162055091630588
:100DC0006091640570916505DECF40936605509390
:100DD0006705609368057093690580916605909139
:100DE0006705A0916805B091690589839A83AB83F3
:100DF000BC83BC01CD010E945A02462F572FBC0173
:100E0000411551056105710519F2490D511D611D0D
:100E1000711D40936A0550936B0560936C05709348
:100E20006D0520916E0530916F053170C501821BF3
:100E3000930B8D809E808815990508F44C01409194
:100E40006A0550916B0560916C0570916D05840188
:100E5000C7010E94DD0181119BCF80916E059091A9
:100E60006F05A0917005B0917105880D991DA11DA8
:100E7000B11D80936E0590936F05A0937005B0939C
:100E80007105AD81BE81A819B909BE83AD83F60194
:100E900080819181880D991D91838083E114F104F3
:100EA00009F438CFE80CF91C35CF4F925F926F925E
:100EB0007F928F929F92AF92BF92CF92DF92EF92EA
:100EC000FF920F931F93CF93DF93CDB7DEB7289791
:100ED0000FB6F894DEBF0FBECDBF462F572FBC0113
:100EE000C0907205D0907305E0907405F090750580
:100EF0004C155D056E057F0510F46A017C0180913B
:100F00006E0590916F05A0917005B09171051092DA
:100F10006E0510926F051092700510927105C11444
:100F2000D104E104F10409F49EC080904F05912C96
:100F3000B12CA12C39E0880C991CAA1CBB1C3A9539
:100F4000D1F70097A105B10509F48FC09C01AD014F
:100F5000215031094109510929833A834B835C832C
:100F6000D701C6010197A109B109BC01CD01A501B5
:100F700094010E947D0B29013A0169817A818B815C
:100F80009C81A50194010E947D0B421653066406C4
:100F9000750608F46AC088279927DC018819990921
:100FA000AA09BB0929813A814B815C818223932361
:100FB000A423B52380936E0590936F05A0937005CD
:100FC000B0937105C81AD90AEA0AFB0A609166054E
:100FD0007091670580916805909169058C149D0456
:100FE000AE04BF0408F452C000916E0510916F0565
:100FF0002091700530917105C00ED11EE21EF31EC6
:10100000C0926E05D0926F05E0927005F092710566
:101010000E945A02462F572FBC0141155105610508
:101020007105D9F180914F058150990B092E000C63
:10103000AA0BBB0B29E0F694E794D794C7942A95A2
:10104000D1F78C219D21AE21BF216C017D01C40E01
:10105000D51EE61EF71EC0926A05D0926B05E0927F
:101060006C05F0926D0580E019C060916205709189
:1010700063058091640590916505609366057093A2
:1010800067058093680590936905A8CF0E940F03B8
:101090006230710581059105C0F481E028960FB694
:1010A000F894DEBF0FBECDBFDF91CF911F910F919E
:1010B000FF90EF90DF90CF90BF90AF909F908F9078
:1010C0007F906F905F904F9008950091520510911E
:1010D000530520915405309155056017710782071B
:1010E0009307D8F66093660570936705809368054B
:1010F0009093690500916E0510916F052091700520
:1011000030917105080D191D2A1D3B1D00936E05B8
:1011100010936F052093700530937105C818D90896
:10112000EA08FB085BCF0F931F93CF93DF93CDB7F4
:10113000DEB7AC970FB6F894DEBF0FBECDBF8C0103
:10114000AB01CE018196D80113969C938E93129792
:10115000BE016F5F7F4FC8010E944104811112C020
:101160008981882361F08C8584FF17C0CE010196A8
:101170000E94DF02F8016483758386839783C80128
:101180000E94A302AC960FB6F894DEBF0FBECDBF8F
:10119000DF91CF911F910F91089582E0F3CFCF920D
:1011A000DF92EF92FF920F931F93CF93DF93CDB710
:1011B000DEB7AC970FB6F894DEBF0FBECDBF7C0193
:1011C0006B01CE018196D70113969C938E93129753
:1011D00082E0672BE9F5C7010E94A302AC960FB627
:1011E000F894DEBF0FBECDBFDF91CF911F910F915D
:1011F000FF90EF90DF90CF900895F701208131812B
:101200002F70332785E0220F331F8A95E1F700E224
:1012100010E0CE0101960E94DD0181110FC089818D
:101220008823D1F1853E29F08E3219F08C8583FF19
:101230001DC0C7010E947203882351F0D7011C967C
:101240001D921D921D921C921F97823039F60EC07E
:10125000D7011C964D915D916D917C911F97411521
:1012600051056105710549F68111E8CF86010B5FD3
:101270001F4FF70184859585A685B785892B8A2B15
:101280008B2B61F4D8011C92C7010E94720382303B
:1012900009F0A4CF80E0A2CF82E0D0CFDE0111968A
:1012A0009601235F3F4F8D91803249F0853009F4DC
:1012B00085EEF8018193E217F307E1F4890189854E
:1012C000803249F09EE2F801908381838A858032E2
:1012D00099F40E5F1F4F8C858071D60114968C9304
:1012E000CE014D960E948709F60160837183828347
:1012F0009383C8CF8F01D7CF82838B85803219F437
:101300000D5F1F4FE8CF83830C5F1F4FE4CFCF9358
:10131000DF9300D000D0CDB7DEB7FC012081318152
:1013200042815381CA01B9010F900F900F900F9025
:10133000DF91CF910895FC018081918108959C01F6
:10134000480F591F2417350709F40895F9016193CF
:101350009F01F8CF9C01480F591F80E024173507E3
:1013600049F0FB0181E0D9016D919D0191916917CF
:1013700011F080E00895BF01F1CF8F929F92AF925C
:10138000BF92CF92DF92EF92FF920F931F93CF9372
:10139000DF936C018B01942E852E7901EC012115D0
:1013A0003105D1F062177307A8F0B12CA12C021BF4
:1013B000130BE601CA0DDB1DA701692D782DCE01A7
:1013C0000E94AA09811108C08FEFA81AB80A0A154D
:1013D0001B0578F7D0E0C0E0CE01DF91CF911F91DF
:1013E0000F91FF90EF90DF90CF90BF90AF909F90C4
:1013F0008F900895CDB7DEB7AE970FB6F894DEBFE5
:101400000FBECDBF1AA619A684E08AB98FE088B9AD
:1014100082E08093B0008093700083EA84BD17BCA3
:1014200018BC8AB18F798AB915BC1092B1000E949C
:10143000120181110E9453000E94F9048111FACF18
:1014400068E271E0CE0143960E949308182F09ECE0
:101450008111F0CFBE016F5F7F4FCE0143960E9496
:10146000CF08882339F070E060E0CE0143960E94F7
:10147000CF08F0CF8D818111EDCFCE0106960E946D
:1014800005068111E7CFAE01495D5F4F60E072E074
:1014900086E493E00E944F068111DCCF8FA198A5CE
:1014A00081159240B9F644E050E06AE271E086E4CA
:1014B00093E00E94AA09882369F248E050E06FE2B5
:1014C00071E08EE493E00E94AA09882319F286E570
:1014D00093E00E9487096BA77CA78DA79EA7603128
:1014E00071058105910509F0B5CF8AE593E00E9469
:1014F0009B09019709F0AECF8CE593E00E949B0910
:101500008093460580914605813029F080914605FB
:10151000823009F09FCF8EE593E00E948709462F25
:10152000572FBC01E0E0F1E090E080E0C080D18086
:10153000E280F3804C155D056E057F0509F06EC0F5
:1015400025E0289FF001299FF00D1124E050FF4F66
:1015500084818093470524E030E048E351E06CED5E
:1015600071E08AE693E00E94BD099C01009709F4AE
:1015700071CF8E5393409093490580934805C901DC
:1015800004960E948709462F572FBC0140934A05B5
:1015900050934B0560934C0570934D0580E092E0AD
:1015A00090934301809342019093450180934401BD
:1015B00060E070E0CB010E94550780914805909152
:1015C000490590933F0180933E01809147058093A8
:1015D000B3008AB180668AB982E08093B10081E06D
:1015E00085BD7894C12CD12C7601BB24B39452E0F4
:1015F000A52E80914A0590914B05A0914C05B09184
:101600004D05C816D906EA06FB0678F08AB18F792F
:101610008AB915BC1092B100F8941CCF019635968A
:101620008830910509F082CF15CF80914101882340
:1016300051F180914001811143C086E491E0AE01F7
:10164000475D5F4F60E072E00E944F068111F2CE6D
:1016500029A53AA5211582E0380778F44091400188
:1016600081E090E0442311F090E080E0880F991F22
:10167000FC01EE5BFE4F31832083C20ED31EE11CC2
:10168000F11C1092410130E020E086B190E0022E82
:1016900002C0959587950A94E2F7E3E2F0E0EC0F3B
:1016A000FD1FE20FF31F80FD26C08081883C58F4A7
:1016B0008F5F80832F5F3F4F2430310531F799CF03
:1016C00086E493E0BCCF883CA9F700832111F2CFD8
:1016D0008AB1112351F080668AB9A092B100B5BCDD
:1016E00081E0111180E0182FE5CF8F798AB915BC00
:1016F0001092B100F5CF1082DDCFA1E21A2EAA1B05
:10170000BB1BFD010DC0AA1FBB1FEE1FFF1FA217B1
:10171000B307E407F50720F0A21BB30BE40BF50BAE
:10172000661F771F881F991F1A9469F76095709537
:10173000809590959B01AC01BD01CF0108950E9459
:10174000AA0BA59F900DB49F900DA49F800D911D95
:1017500011240895A29FB001B39FC001A39F700DF3
:10176000811D1124911DB29F700D811D1124911DA9
:061770000895F894FFCF7C
:10177600401F0000FA112B0000B5803E00007D22BC
:101786005600005BC05D000053007D00003F44AC86
:1017960000002D80BB00002A2F0052494646005704
:0E17A600415645666D74200064617461000058
:00000001FF
